{
  "contractName": "VoteChain",
  "abi": [
    {
      "inputs": [],
      "payable": false,
      "stateMutability": "nonpayable",
      "type": "constructor"
    },
    {
      "constant": true,
      "inputs": [],
      "name": "voteCount",
      "outputs": [
        {
          "internalType": "uint256",
          "name": "",
          "type": "uint256"
        }
      ],
      "payable": false,
      "stateMutability": "view",
      "type": "function"
    },
    {
      "constant": true,
      "inputs": [
        {
          "internalType": "uint256",
          "name": "",
          "type": "uint256"
        }
      ],
      "name": "votes",
      "outputs": [
        {
          "internalType": "uint256",
          "name": "id",
          "type": "uint256"
        },
        {
          "internalType": "string",
          "name": "choice",
          "type": "string"
        }
      ],
      "payable": false,
      "stateMutability": "view",
      "type": "function"
    },
    {
      "constant": false,
      "inputs": [
        {
          "internalType": "string",
          "name": "_choice",
          "type": "string"
        }
      ],
      "name": "createVote",
      "outputs": [],
      "payable": false,
      "stateMutability": "nonpayable",
      "type": "function"
    }
  ],
  "bytecode": "0x60806040526000805534801561001457600080fd5b506040805180820190915260078152660a0c2e4e8f240b60cb1b6020820152610045906001600160e01b0361004a16565b610131565b6000805460019081018083556040805180820182528281526020808201878152938652848152919094208451815591518051929361009093908501929190910190610096565b50505050565b828054600181600116156101000203166002900490600052602060002090601f016020900481019282601f106100d757805160ff1916838001178555610104565b82800160010185558215610104579182015b828111156101045782518255916020019190600101906100e9565b50610110929150610114565b5090565b61012e91905b80821115610110576000815560010161011a565b90565b61036c806101406000396000f3fe608060405234801561001057600080fd5b50600436106100415760003560e01c806313292a02146100465780635df81330146100ee578063c63840711461018a575b600080fd5b6100ec6004803603602081101561005c57600080fd5b81019060208101813564010000000081111561007757600080fd5b82018360208201111561008957600080fd5b803590602001918460018302840111640100000000831117156100ab57600080fd5b91908080601f0160208091040260200160405190810160405280939291908181526020018383808284376000920191909152509295506101a4945050505050565b005b61010b6004803603602081101561010457600080fd5b50356101f0565b6040518083815260200180602001828103825283818151815260200191508051906020019080838360005b8381101561014e578181015183820152602001610136565b50505050905090810190601f16801561017b5780820380516001836020036101000a031916815260200191505b50935050505060405180910390f35b610192610296565b60408051918252519081900360200190f35b600080546001908101808355604080518082018252828152602080820187815293865284815291909420845181559151805192936101ea9390850192919091019061029c565b50505050565b600160208181526000928352604092839020805481840180548651600296821615610100026000190190911695909504601f8101859004850286018501909652858552909491939290919083018282801561028c5780601f106102615761010080835404028352916020019161028c565b820191906000526020600020905b81548152906001019060200180831161026f57829003601f168201915b5050505050905082565b60005481565b828054600181600116156101000203166002900490600052602060002090601f016020900481019282601f106102dd57805160ff191683800117855561030a565b8280016001018555821561030a579182015b8281111561030a5782518255916020019190600101906102ef565b5061031692915061031a565b5090565b61033491905b808211156103165760008155600101610320565b9056fea265627a7a7231582087504d6262ece67386c319089864e065d6978fedb7888d40175b9bda04f0ba1d64736f6c63430005100032",
  "source": "pragma solidity ^0.5.0;\r\n\r\ncontract VoteChain {\r\n  uint public voteCount = 0;\r\n\r\n  struct Vote {\r\n    uint id;\r\n    string choice;\r\n  }\r\n\r\n  mapping(uint => Vote) public votes;\r\n\r\n  constructor() public {\r\n    createVote(\"Party X\");\r\n  }\r\n\r\n  function createVote(string memory _choice) public {\r\n    voteCount ++;\r\n    votes[voteCount] = Vote(voteCount, _choice);\r\n  }\r\n\r\n}\r\n",
  "sourcePath": "C:/Users/olive/OneDrive/Documents/Victoria-Uni/t2-2020/MDDN383/votechain/contracts/VoteChain.sol",
  "compiler": {
    "name": "solc",
    "version": "0.5.16+commit.9c3226ce.Emscripten.clang"
  },
  "schemaVersion": "3.3.2",
  "updatedAt": "2020-12-02T04:17:46.318Z",
  "networkType": "ethereum",
  "devdoc": {
    "methods": {}
  },
  "userdoc": {
    "methods": {}
  }
}